S00C00004C4142312E7372656318
S113000099C00000B6C00000B4C00000B2C0000037
S1130010B0C00000AEC00000ACC00000AAC0000028
S1130020A8C00000A6C00000A4C00000A2C0000038
S1130030A0C000009EC000009CC000009AC0000048
S113004098C0000096C0000094C0000092C0000058
S113005090C000008EC000008CC000008AC0000068
S113006088C0000086C0000084C0000082C0000078
S113007080C000007EC000007CC000007AC0000088
S113008078C0000076C0000074C0000072C0000098
S113009070C000006EC000006CC000006AC00000A8
S11300A068C0000066C0000064C0000062C00000B8
S11300B060C000005EC000005CC000005AC00000C8
S11300C058C0000056C0000054C0000052C00000D8
S11300D050C000004EC000004CC000004AC00000E8
S11300E048C0000046C0000044C0000042C00000F8
S11300F040C000003EC000003CC000003AC0000008
S113010038C0000036C0000034C0000032C0000017
S113011030C000002EC000002CC000002AC0000027
S113012028C0000026C0000024C0000022C0000037
S113013020C0000011241FBECFEFD1E8DEBFCDBF29
S113014000E00CBF12E0A0E0B2E0EAEFF9E000E06A
S11301500BBF02C007900D92A63EB107D9F722E06B
S1130160A6EEB2E001C01D92AC3EB207E1F789D021
S113017042C446CF80E096E9F5D080E092E09093C7
S1130180E9028093E80208954F925F926F927F9202
S11301908F929F92AF92BF92EF92FF920F931F9311
S11301A0CF93DF9300D01F92CDB7DEB749015A0138
S11301B0A801970109D12B013C0181149104A104E8
S11301C0B10461F181E090E0A0E0B0E089839A831A
S11301D0AB83BC8380FE0EC0A301920169817A8146
S11301E08B819C81E2D0A8019701EED069837A8348
S11301F08B839C83B694A79497948794A3019201CC
S1130200C301B201D2D0A8019701DED02B013C0179
S113021081149104A104B104E9F608C081E090E0DE
S1130220A0E0B0E089839A83AB83BC8369817A813F
S11302308B819C810F900F900F900F90DF91CF9145
S11302401F910F91FF90EF90BF90AF909F908F9070
S11302507F906F905F904F9008957F936F935F931B
S11302604F939F938F938EE092E09F938F9303D14C
S11302708DB79EB708960FB6F8949EBF0FBE8DBF7C
S11302800895EF92FF920F931F9374DF2FEF89E687
S113029098E1215080409040E1F700C0000087E1E0
S11302A092E09F938F93E7D01F9287E18F9387E328
S11302B092E09F938F93DFD01F9285E08F938BE41E
S11302C092E09F938F93D7D01F921F921F928FE03B
S11302D08F938FE592E09F938F93CDD017E1E12E1A
S11302E0F12C00E010E02FE030E040E050E065E069
S11302F070E080E090E048DFAB01BC0186E792E06B
S1130300ACDF89E892E09F938F93B5D01F921F9240
S11303101F9288E08F938AEA92E09F938F93ABD0E9
S11303202FE030E040E050E068E070E080E090E0F2
S11303302BDFAB01BC018CEC92E08FDF87EA92E00B
S11303409F938F9398D08DB79EB74A960FB6F89423
S11303509EBF0FBE8DBF80E090E01F910F91FF9074
S1130360EF9008959C0140E050E060E271EA87E07C
S113037090E04CD0215031093093CD002093CC0033
S1130380E9ECF0E088E1808386E08093CA00808114
S1130390806880830895E8ECF0E0908195FFFDCFBC
S11303A08093CE0080E090E00895DB018F939F93CB
S11303B049D0BF91AF91A29F800D911DA39F900D35
S11303C0B29F900D11240895A1E21A2EAA1BBB1B03
S11303D0FD010DC0AA1FBB1FEE1FFF1FA217B3070D
S11303E0E407F50720F0A21BB30BE40BF50B661F23
S11303F0771F881F991F1A9469F7609570958095E7
S113040090959B01AC01BD01CF010895052E97FB8A
S113041016F400940FD057FD05D0D6DF07FC02D0A8
S113042046F408C050954095309521953F4F4F4F65
S11304305F4F089590958095709561957F4F8F4F8C
S11304409F4F089509D0A59F900DB49F900DA49F30
S1130450800D911D11240895A29FB001B39FC00186
S1130460A39F700D811D1124911DB29F700D811DDC
S11304701124911D0895CF93DF93CDB7DEB7AE015C
S11304804A5F5F4FFA0161917191AF018091E80277
S11304909091E90203D0DF91CF9108952F923F927A
S11304A04F925F926F927F928F929F92AF92BF9280
S11304B0CF92DF92EF92FF920F931F93CF93DF932C
S11304C0CDB7DEB72B970FB6F894DEBF0FBECDBF06
S11304D06C017B018A01FC0117821682838181FFF2
S11304E0BFC1CE0101963C01F6019381F70193FD52
S11304F0859193FF81917F01882309F4ADC18532F1
S113050039F493FD859193FF81917F01853221F424
S1130510B60190E0D6D1E8CF912C212C312CFFE10B
S1130520F315D8F08B3279F038F4803279F08332D5
S1130530A1F4232D20611DC08D3261F0803369F454
S1130540232D216016C0832D8260382EE32DE460B4
S11305503E2E2AC0F32DF8601DC037FC2DC020EDBF
S1130560280F2A3040F08E32B9F436FC75C1232DA1
S11305702064322E19C036FE06C08AE0989E200DF3
S11305801124922E11C0EAE02E9E200D1124222E59
S1130590F32DF0623F2E08C08C3621F4832D806841
S11305A0382E02C0883641F4F70193FD859193FFFC
S11305B081917F018111B3CF982F9F7D9554933002
S11305C028F40C5F1F4F9FE399830DC0833631F0ED
S11305D0833771F0833509F055C020C0F80180815C
S11305E089830E5F1F4F88248394912C530112C07A
S11305F02801F2E04F0E511CF801A080B18036FEB4
S113060003C0692D70E002C06FEF7FEFC5014ED1CA
S11306104C018201F32DFF773F2E15C0280122E003
S1130620420E511CF801A080B18036FE03C0692D32
S113063070E002C06FEF7FEFC5012DD14C01F32DA7
S1130640F0683F2E820133FC19C0822D90E0881699
S11306509906A0F4B60180E290E033D12A94F5CF54
S1130660F50137FC859137FE81915F01B60190E079
S113067028D121102A9421E0821A9108811491042E
S113068079F7E1C0843611F0893639F5F80137FE7F
S113069007C060817181828193810C5F1F4F08C004
S11306A060817181072E000C880B990B0E5F1F4F20
S11306B0F32DFF763F2E97FF09C090958095709596
S11306C061957F4F8F4F9F4FF0683F2E2AE030E0B7
S11306D0A30133D1882E861844C0853731F4232DE5
S11306E02F7EB22E2AE030E025C0932D997FB92EBB
S11306F08F36C1F018F4883579F0AEC0803719F020
S1130700883721F0A9C0E92FE061BE2EB4FE0DC0E8
S1130710FB2DF460BF2E09C034FE0AC0292F2660C9
S1130720B22E06C028E030E005C020E130E002C06F
S113073020E132E0F801B7FE07C060817181828157
S113074093810C5F1F4F06C06081718180E090E04F
S11307500E5F1F4FA301F1D0882E8618FB2DFF7763
S11307603F2E36FE0DC0232D2E7FA22E891458F461
S113077034FE0BC032FC09C0832D8E7EA82E05C02A
S1130780B82CA32C03C0B82C01C0B92CA4FE0FC0F4
S1130790FE01E80DF11D8081803321F49A2D997EAC
S11307A0A92E09C0A2FE06C0B394B39404C08A2D36
S11307B0867809F0B394A3FC10C0A0FE06C0B2145E
S11307C080F4280C922C9B180DC0B21458F4B60176
S11307D080E290E076D0B394F8CFB21418F42B18DA
S11307E002C0982C212CA4FE0FC0B60180E390E037
S11307F068D0A2FE16C0A1FC03C088E790E002C046
S113080088E590E0B6010CC08A2D867851F0A1FEEF
S113081002C08BE201C080E2A7FC8DE2B60190E049
S113082050D0891430F4B60180E390E04AD09A9411
S1130830F8CF8A94F301E80DF11D8081B60190E0B0
S113084040D08110F6CF222009F44ECEB60180E2CA
S113085090E037D02A94F7CFF6018681978102C0C1
S11308608FEF9FEF2B960FB6F894DEBF0FBECDBF70
S1130870DF91CF911F910F91FF90EF90DF90CF9078
S1130880BF90AF909F908F907F906F905F904F90AC
S11308903F902F900895FC01059061507040011025
S11308A0D8F7809590958E0F9F1F0895FC01615095
S11308B0704001900110D8F7809590958E0F9F1F7E
S11308C008950F931F93CF93DF93FB01238121FDA1
S11308D003C08FEF9FEF2CC022FF16C046815781C3
S11308E0248135814217530744F4A081B1819D01CD
S11308F02F5F3F4F318320838C93268137812F5F75
S11309003F4F3783268314C08B01EC01FB01008425
S1130910F185E02D1995892BE1F6D80116968D9174
S11309209C911797019617969C938E931697CE01D8
S1130930DF91CF911F910F910895FA01AA272830D2
S113094051F1203181F1E8946F936E7F6E5F7F4F98
S11309508F4F9F4FAF4FB1E03ED0B4E03CD0670F14
S1130960781F891F9A1FA11D680F791F8A1F911D67
S1130970A11D6A0F711D811D911DA11D20D009F4B7
S113098068943F912AE0269F11243019305D3193F9
S1130990DEF6CF010895462F4770405D4193B3E0E2
S11309A00FD0C9F7F6CF462F4F70405D4A3318F089
S11309B0495D31FD4052419302D0A9F7EACFB4E03A
S11309C0A6959795879577956795BA95C9F70097F2
S11309D06105710508959B01AC010A2E0694579593
S11309E0479537952795BA95C9F7620F731F841FEA
S10D09F0951FA01D0895F894FFCF91
S11309FA0000000300000000CB0100000000257382
S1130A0A20256C750A0D004469666669652D48657A
S1130A1A6C6C6D616E2045786368616E6765202D24
S1130A2A20426F620A0D005020287072766F636943
S1130A3A736C6F293A2025750A0D004720286765CB
S1130A4A6E657261746F72293A2025750A0D005415
S1130A5A616A6E79206B6C696320426F62613A2025
S1130A6A256C750A0D00566572656A6E79206B6C81
S1130A7A696320426F62613A0043656B616D206E5F
S1130A8A6120766572656A6E79206B6C69632041B0
S1130A9A6C6963652E2E2E0A0D005072696A6174A0
S1130AAA7920766572656A6E79206B6C6963204178
S1130ABA6C6963653A20256C750A0D0053706F6C76
S1130ACA65636E792074616A6E79206B6C69632040
S1090ADA426F62613A0064
S9030000FC
