S00C00004C4142332E7372656316
S113000021C100003FC100003DC100003BC1000010
S113001039C1000073C3000035C1000033C10000C2
S113002031C100002FC100002DC100002BC1000010
S113003029C1000027C1000025C10000D1C3000070
S113004021C10000B9C30000C1C300001BC10000EE
S113005019C10000A7C3000015C1000013C10000AE
S113006011C100000FC100000DC100000BC1000050
S113007009C10000DAC3000005C1000003C100008B
S113008001C10000FFC00000FDC00000FBC0000073
S11300905AC30000F7C00000F5C00000F3C0000020
S11300A0F1C00000EFC00000EDC00000EBC0000094
S11300B0E9C00000E7C00000E5C00000E3C00000A4
S11300C0E1C00000DFC00000DDC00000DBC00000B4
S11300D0D9C00000D7C00000D5C00000D3C00000C4
S11300E0D1C00000CFC00000CDC00000CBC00000D4
S11300F0C9C00000C7C00000C5C00000C3C00000E4
S1130100C1C00000BFC00000BDC00000BBC00000F3
S1130110B9C00000B7C00000B5C00000B3C0000003
S1130120B1C00000AFC00000ADC00000ABC0000013
S1130130A9C00000810287028B028F029402A602EA
S1130140F1026E616E00696E660000407A10F35A27
S113015000A0724E18090010A5D4E80000E8764803
S1130160170000E40B54020000CA9A3B000000E1AF
S1130170F505000080969800000040420F00000042
S1130180A08601000000102700000000E803000022
S113019000006400000000000A00000000000100EC
S11301A0000000002C76D888DC674F0823DFC1DF0D
S11301B0AE59E1B1B796E5E3E453C63AE651997610
S11301C096E8E6C28426EB898C9B62ED407C6FFC4A
S11301D0EFBC9C9F40F2BAA56FA5F490055A2AF78C
S11301E05C936B6CF9676DC11BFCE0E40D47FEF595
S11301F020E6B500D0ED902E0300943577050080FD
S1130200841E080000204E0A000000C80C3333335B
S1130210330F986E12831141EF8D2114893BE655FB
S113022016CFFEE6DB18D1844B381BF77C1D901DDE
S1130230A4BBE424203284725E228100C9F124EC40
S1130240A1E53D2711241FBECFEFD1E8DEBFCDBF0E
S113025000E00CBF13E0A0E0B2E0E6E9F8E100E062
S11302600BBF02C007900D92A03EB107D9F723E05F
S1130270A0EEB3E001C01D92AC3EB207E1F712D28A
S11302800C94490CBDCE10927C0010927A0010920E
S11302907B00109277000895CF93DF93ACE7B0E032
S11302A01C924AE750E0FA011082CBE7D0E01882B2
S11302B087E790E0FC0110822AE0208388E08883AD
S11302C089EC8C9384ECFA01808380917A0086FD1A
S11302D0FCCF8091780090917900DF91CF910895BF
S11302E0ACE7B0E01C92EAE7F0E0108210927B00E9
S11302F0109277009081892B80838C9190E4699F80
S1130300B0011124682B6C93808180688083809174
S11303107B008823E4F780917B0085FFFCCFECE72A
S1130320F0E08081482B4083EBE7F0E08081282BCC
S11303302083EAE7F0E080818062808380818860A6
S113034080830895F89480E096E928D3E9ECF0E0FE
S113035080818068808380E092E09093E9038093B9
S1130360E80384B1806184B984B1806284B984B1C2
S1130370806484B98DB188608DB985B18F7E85B96B
S113038085B18F7D85B985B18F7B85B98EB1877F26
S11303908EB984E6D9D28DB18F7E8DB98EB180614C
S11303A08EB98DB380618DBBEAE6F0E08081826016
S11303B0808380818160808378940895CF93DF93D4
S11303C08BE101D38EE092E00CD38BE1FCD282E18D
S11303D092E007D3CCE1D2E0DF93CF930E94A80B45
S11303E084E492E09F938F930E94A80B8DE492E0A3
S11303F09F938F930E94A80B89E592E09F938F931C
S11304000E94A80B8DE692E09F938F930E94A80B05
S113041080E892E09F938F930E94A80B80E992E07A
S11304209F938F930E94A80B8FEA92E09F938F93E0
S11304300E94A80B88EC92E09F938F930E94A80BD4
S1130440DF93CF930E94A80B8BE1BDD28FED92E096
S1130450C8D28DB79EB744960FB6F8949EBF0FBE10
S11304608DBFDF91CF910895CF93DF938BE1ABD212
S11304708EE092E0B6D28BE1A6D282E192E0B1D2D4
S1130480CCE1D2E0DF93CF930E94A80B89EE92E0F7
S11304909F938F930E94A80B8BEF92E09F938F936F
S11304A00E94A80B81E193E09F938F930E94A80B75
S11304B088E293E09F938F930E94A80BDF93CF93DE
S11304C00E94A80B8BE17FD28FED92E08AD28DB788
S11304D09EB70C960FB6F8949EBF0FBE8DBFDF91EA
S11304E0CF910895E091E5038E2F90E0FC01F09701
S11304F0E730F10508F099C08827E656FF4F8F4F83
S1130500BFC784E393E00E94BB0B58DF92C085B160
S11305108F7D85B98EC085B1806285B98AC083E03C
S11305208093E203A1DF85C080918100882331F0AC
S11305308FE393E00E94BB0B04D27BC081E593E080
S11305400E94BB0B88EB9BE0DCD173C08091E0037D
S1130550811121C0A1DEBC0180E090E0E8D227ED4A
S113056033EA40E95FE371D326E636E648E853E42C
S11305704DD29F938F937F936F9383E693E09F93E2
S11305808F930E94A80B7FDE0F900F900F900F9017
S11305900F900F904EC080DEBC0180E090E0C7D287
S11305A027ED33EA40E95FE350D326E636E648E830
S11305B053E42CD29F938F937F936F9383E693E0BE
S11305C09F938F930E94A80B5EDE23E043E062E0DA
S11305D084E086DE0F900F900F900F900F900F9095
S11305E028C087E793E09F938F930E94A80B809184
S11305F0E0030F900F9081110FC08BE893E00E94ED
S1130600BB0B81E08093E00323E043E062E084E0FD
S113061067DE84E65FD10DC085E993E00E94BB0BE1
S11306201092E00330DE6BD104C08FE993E00E94A6
S1130630BB0B1092E30308958091E5038D32A9F07A
S1130640813729F18B3239F585EB93E00E94BB0B9E
S11306508091E1038B3030F08091E1038A508093E4
S1130660E1031DC01092E1031AC089EC93E00E94DB
S1130670BB0B8091E1038A3530F48091E103865FFE
S11306808093E1030CC084E68093E10308C01092D8
S1130690E20394DE04C08FE993E00E94BB0B109246
S11306A0E30308954FDE2FEF80E792E0215080406E
S11306B09040E1F700C0000081DE2FEF80E792E078
S11306C0215080409040E1F700C000008091E30396
S11306D0813051F48091E203882319F0833019F0BA
S11306E003C000DF01C0A8DF2FEF80E792E02150B4
S11306F080409040E1F700C00000E8CF1F920F92C5
S11307000FB60F9211242F938F939F932FEF81EEA7
S113071094E0215080409040E1F700C000008091B7
S1130720E4038F5F8093E4039EB188E089278EB948
S11307308CB380618CBB9F918F912F910F900FBED2
S11307400F901F9018951F920F920FB60F921124BD
S11307500BB60F922F933F934F935F936F937F93B7
S11307608F939F93AF93BF93EF93FF9333D1809372
S1130770E5038091E50327D181E08093E303FF91B2
S1130780EF91BF91AF919F918F917F916F915F9105
S11307904F913F912F910F900BBE0F900FBE0F9072
S11307A01F9018951F920F920FB60F9211240F905D
S11307B00FBE0F901F9018951F920F920FB60F92B5
S11307C011240F900FBE0F901F9018951F920F9237
S11307D00FB60F9211240F900FBE0F901F90189513
S11307E01F920F920FB60F9211242F935F936F9362
S11307F07F938F939F93AF93BF938091E1032FEFE8
S1130800829FC001112464E670E00BD66093B300AC
S1130810BF91AF919F918F917F916F915F912F9134
S11308200F900FBE0F901F9018951F920F920FB646
S11308300F9211240BB60F922F933F934F935F9314
S11308406F937F938F939F93AF93BF93EF93FF9394
S1130850CF93DF931F921F92CDB7DEB78091E00351
S1130860813009F51A82198280917800909179007B
S11308709A83898369817A8180E090E058D120E06D
S113088030E040E85AE3E1D120E030E048EC52E4C3
S1130890DCD19B01AC0160E070E088EC92E4B6D05E
S11308A01AD16093E1030F900F90DF91CF91FF91E4
S11308B0EF91BF91AF919F918F917F916F915F91D4
S11308C04F913F912F910F900BBE0F900FBE0F9041
S11308D01F901895F89414BC15BCEEE6F0E0108255
S11308E087BD84B5826084BD85B5856085BD808102
S11308F08260808384B5806484BD7894089515BC37
S11309000895CF93DF93F894A0E8B0E01C92E1E857
S1130910F0E01082CFE6D0E01882909389008093B3
S1130920880080818860808380818560808388815D
S1130930826088838C9180648C937894DF91CF91CA
S11309400895109281000895CF93DF93F894E0EB1B
S1130950F0E0108221EB30E0D9011C92C0E7D0E036
S11309601882BFEF8B9FC001112464E670E059D553
S11309706093B30080818260808380818160808302
S1130980D9018C9185608C93888181608883808172
S1130990806880837894DF91CF9108959C0140E032
S11309A050E060E271EA87E090E04ED521503109D1
S11309B086E08093CA003093CD002093CC0088E178
S11309C08093C90008959091C80095FFFCCF80934F
S11309D0CE0008958091C8008823E4F78091CE006A
S11309E00895CF93DF93EC0102C0EDDF2196888157
S11309F08111FBCFDF91CF9108959091C80095FFAD
S1130A00FCCF8093CE0080E090E008955058BB273F
S1130A10AA270ED0E0C0D1D030F0D6D020F031F4E7
S1130A209F3F11F41EF4C6C00EF4E095E7FBBCC072
S1130A30E92FE2D080F3BA1762077307840795079A
S1130A4018F071F49EF5FAC00EF4E0950B2EBA2F4F
S1130A50A02D0B01B90190010C01CA01A0011124C0
S1130A60FF27591B99F0593F50F4503E68F11A166C
S1130A70F040A22F232F342F4427585FF3CF4695FD
S1130A8037952795A795F0405395C9F77EF41F161F
S1130A90BA0B620B730B840BBAF09150A1F0FF0FE9
S1130AA0BB1F661F771F881FC2F70EC0BA0F621FD5
S1130AB0731F841F48F4879577956795B795F795C5
S1130AC09E3F08F0B3CF9395880F08F09927EE0F57
S1130AD097958795089598D088F09F5790F0B92FEF
S1130AE09927B751A0F0D1F0660F771F881F991F7F
S1130AF01AF0BA95C9F712C0B13081F09FD0B1E0B5
S1130B0008959CC0672F782F8827B85F39F0B93FC4
S1130B10CCF3869577956795B395D9F73EF4909580
S1130B208095709561957F4F8F4F9F4F0895E894FE
S1130B3009C097FB3EF490958095709561957F4F21
S1130B408F4F9F4F9923A9F0F92F96E9BB279395CF
S1130B50F695879577956795B795F111F8CFFAF4DF
S1130B60BB0F11F460FF1BC06F5F7F4F8F4F9F4F10
S1130B7016C0882311F096E911C0772321F09EE86E
S1130B80872F762F05C0662371F096E8862F70E0D4
S1130B9060E02AF09A95660F771F881FDAF7880FAE
S1130BA09695879597F9089597F99F6780E870E07F
S1130BB060E008959FEF80EC089500240A941616CF
S1130BC0170618060906089500240A941216130637
S1130BD0140605060895092E0394000C11F48823C5
S1130BE052F0BB0F40F4BF2B11F460FF04C06F5FE1
S1130BF07F4F8F4F9F4F089557FD9058440F551FB7
S1130C0059F05F3F71F04795880F97FB991F61F08A
S1130C109F3F79F087950895121613061406551F01
S1130C20F2CF4695F1DF08C0161617061806991F6D
S1130C30F1CF86957105610508940895E894BB2762
S1130C4066277727CB0197F908950BD0C4CFB5DF7A
S1130C5028F0BADF18F0952309F0A6CFABCF112402
S1130C60EECFCADFA0F3959FD1F3950F50E0551F47
S1130C70629FF001729FBB27F00DB11D639FAA27ED
S1130C80F00DB11DAA1F649F6627B00DA11D661F3C
S1130C90829F2227B00DA11D621F739FB00DA11D5D
S1130CA0621F839FA00D611D221F749F3327A00D17
S1130CB0611D231F849F600D211D822F762F6A2FB3
S1130CC011249F5750408AF0E1F088234AF0EE0F38
S1130CD0FF1FBB1F661F771F881F91505040A9F745
S1130CE09E3F510570F060CFAACF5F3FECF3983E72
S1130CF0DCF3869577956795B795F795E7959F5FAC
S1130D00C1F7FE2B880F911D9695879597F9089545
S1130D102F923F924F925F926F927F928F929F9207
S1130D20AF92BF92CF92DF92EF92FF920F931F93F5
S1130D30CF93DF93CDB7DEB760970FB6F894DEBFDD
S1130D400FBECDBF7C011B016A01FC011782168214
S1130D50838181FF2AC39E012F5F3F4F3901F70131
S1130D609381F10193FD859193FF81911F01882364
S1130D7009F417C3853239F493FD859193FF81916A
S1130D801F01853231F4B70190E0A6D45601650104
S1130D90E6CF10E0512C912CFFE1F915D8F08B32FD
S1130DA079F038F4803279F08332A1F4F92DF061CE
S1130DB02EC08D3261F0803369F4292D21602DC05D
S1130DC0392D3260932E892D8460982E2AC0E92D06
S1130DD0E86015C097FC2DC020ED280F2A3088F458
S1130DE096FE06C03AE0139F200D1124122F19C05D
S1130DF08AE0589E200D1124522EE92DE0629E2E89
S1130E0010C08E3231F496FCCCC2F92DF0649F2EC2
S1130E1008C08C3621F4292D2068922E02C0883611
S1130E2041F4F10193FD859193FF81911F0181119B
S1130E30B3CF9BEB980F933020F4992D9061805E93
S1130E4007C09BE9980F933008F059C1992D9F7EF4
S1130E5096FF16E09F73992E853619F49064992EA7
S1130E6008C0863621F4392F3068932E02C0111140
S1130E70115097FE07C01C3350F444244394410E90
S1130E8027E00BC0183038F027E017E005C027E052
S1130E909CE3492E02C0212F412C560184E0A80E68
S1130EA0B11CF6016081718182819381042DA301BB
S1130EB025D36C01F981FC87F0FF02C0F3FF06C063
S1130EC091FC06C092FE06C000E205C00DE203C01C
S1130ED00BE201C000E08C858C7019F0011143C253
S1130EE080C297FE10C04C0CFC85F4FF04C08A81BC
S1130EF0813309F44A94141474F528E0241578F520
S1130F0088E0482E2CC096FC2AC0812F90E08C15D6
S1130F109D059CF03CEFC3163FEFD30674F0892D7A
S1130F208068982E0AC0E2E0F0E0EC0FFD1FE10FAC
S1130F30F11D8081803319F411501111F4CF97FE03
S1130F400EC044244394410E812F90E0C816D90664
S1130F502CF41C1904C04424439401C010E097FEEF
S1130F6006C01C141D0434F4C601019605C085E0B6
S1130F7090E002C081E090E001110196112331F06C
S1130F80212F30E02F5F3F4F820F931F252D30E03C
S1130F908217930714F4581A01C0512C892D8970B3
S1130FA041F4552031F0B70180E290E095D35A9492
S1130FB0F8CF002321F0B701802F90E08DD393FC6C
S1130FC008C0552031F0B70180E390E085D35A94EE
S1130FD0F8CF97FE4AC04601D7FE02C0812C912C5F
S1130FE0C60188199909F301E80FF91FFE87ED87F7
S1130FF0960124193109388B2F87012F10E01195A0
S1131000019511093FEF8316930621F4B7018EE28F
S113101090E062D3C814D9044CF08F859889881560
S1131020990524F4ED85FE85818101C080E3F1E01A
S11310308F1A91082D853E852F5F3F4F3E872D8760
S11310408016910624F0B70190E046D3DBCFC81494
S1131050D90441F49A81963320F4953319F43C85EC
S113106034FF81E3B70190E048C08A81813319F0ED
S11310709C859F7E9C87B70190E02ED3111105C0FB
S113108094FC16C085E690E015C0B7018EE290E0AE
S113109023D31E5F82E001E0080FF301E80FF11D86
S11310A08081B70190E018D3802F0113F4CFE8CFEB
S11310B085E490E0B70110D3D7FC06C0C114D10475
S11310C041F4EC85E4FF05C0D194C194D1088DE2CC
S11310D001C08BE2B70190E0FFD280E32AE0C216A0
S11310E0D1042CF08F5FFAE0CF1AD108F7CFB70103
S11310F090E0F2D2B701C601C096EED249C1833660
S113110031F0833779F0833509F052C01FC056019E
S113111032E0A30EB11CF6018081898301E010E066
S1131120630111C05601F2E0AF0EB11CF601C0809C
S1131130D18096FE03C0612F70E002C06FEF7FEF95
S1131140C601BFD28C01F92DFF7713C0560122E0EE
S1131150A20EB11CF601C080D18096FE03C0612F9F
S113116070E002C06FEF7FEFC601A0D28C01F92DB1
S1131170F0689F2EF3FD18C0852D90E0081719071D
S113118098F4B70180E290E0A7D25A94F5CFF60123
S113119097FC859197FE81916F01B70190E09CD2F5
S11311A051105A94015011090115110581F7F0C02D
S11311B0843611F0893659F5560197FE09C024E0AA
S11311C0A20EB11CF60160817181828193810AC0F3
S11311D0F2E0AF0EB11CF60160817181072E000CA4
S11311E0880B990BF92DFF769F2E97FF09C09095D8
S11311F08095709561957F4F8F4F9F4FF0689F2E1C
S11312002AE030E0A301E7D2C82EC6183EC0092D5B
S1131210853721F40F7E2AE030E01DC0097F8F3628
S113122091F018F4883559F0BCC0803719F088372C
S113123011F0B7C0006104FF09C0046007C094FE48
S113124008C0066006C028E030E005C020E130E0B8
S113125002C020E132E0560107FF09C084E0A80E75
S1131260B11CF601608171818281938108C0F2E032
S1131270AF0EB11CF6016081718180E090E0A301A2
S1131280AAD2C82EC6180F77902E96FE0BC0092D31
S11312900E7FC11650F494FE0AC092FC08C0092DBA
S11312A00E7E05C0DC2C092D03C0DC2C01C0D12E20
S11312B004FF0DC0FE01EC0DF11D8081803311F49B
S11312C0097E09C002FF06C0D394D39404C0802FC2
S11312D0867809F0D39403FD10C000FF06C01C2DCE
S11312E0D51478F4150D1D190CC0D51450F4B7019C
S11312F080E290E0F1D1D394F8CFD51410F45D18C6
S113130001C0512C04FF0FC0B70180E390E0E4D189
S113131002FF16C001FD03C088E790E002C088E523
S113132090E0B7010CC0802F867851F001FF02C015
S11313308BE201C080E207FD8DE2B70190E0CCD1E1
S1131340C11630F4B70180E390E0C6D11150F8CF54
S1131350CA94F301EC0DF11D8081B70190E0BCD17A
S1131360C110F6CF15C0F4E0F51550F584E0581A15
S113137093FE1EC0011125C02C8523FF27C002E463
S113138011E0392D3071932EF8018491811121C01F
S1131390552009F4FCCCB70180E290E09DD15A9429
S11313A0F7CFF7018681978123C08FEF9FEF20C08D
S11313B0B70180E290E090D15A945110F9CFDACF7E
S11313C0512CB701802F90E087D1D6CF06E411E0ED
S11313D0D8CF91108052B70190E07ED10F5F1F4F9C
S11313E0D3CF23E0251510F483E0C1CF512CC4CF13
S11313F060960FB6F894DEBF0FBECDBFDF91CF91DC
S11314001F910F91FF90EF90DF90CF90BF90AF901E
S11314109F908F907F906F905F904F903F902F9010
S1131420089597FB072E16F4009406D077FD08D094
S11314302FD007FC05D03EF4909581959F4F0895D9
S1131440709561957F4F0895052E97FB16F40094CF
S11314500FD057FD05D030D007FC02D046F408C0A9
S113146050954095309521953F4F4F4F5F4F0895CC
S113147090958095709561957F4F8F4F9F4F0895FC
S1131480EE0FFF1F881F8BBF0790F691E02D199474
S1131490AA1BBB1B51E107C0AA1FBB1FA617B70796
S11314A010F0A61BB70B881F991F5A95A9F78095B2
S11314B09095BC01CD010895A1E21A2EAA1BBB1B75
S11314C0FD010DC0AA1FBB1FEE1FFF1FA217B3070C
S11314D0E407F50720F0A21BB30BE40BF50B661F22
S11314E0771F881F991F1A9469F7609570958095E6
S11314F090959B01AC01BD01CF010895283008F0FF
S113150027E03327DA01990F311D87FD916000969A
S11315106105710539F432602E5F3D9330E32A95FD
S1131520E1F708959F3F30F080387105610509F0B7
S11315303C5F3C5F3D93913008F08068911DDF93E0
S1131540CF931F930F93FF92EF92192F987F969545
S1131550E92F96959695E90FFF27EC55FE4F9927AD
S11315603327EE24FF24A701E7010590089407948C
S113157028F4360FE71EF81E491F511D660F771F0A
S1131580881F991F0694A1F70590079428F4E70E85
S1131590F81E491F561FC11D770F881F991F661F0C
S11315A00694A1F70590079428F4F80E491F561FD6
S11315B0C71FD11D880F991F661F771F0694A1F7B7
S11315C00590079420F4490F561FC71FD81F990F81
S11315D0661F771F881F0694A9F7849110951770CA
S11315E041F0D695C79557954795F794E7941A9582
S11315F0C1F7EAE4F1E0689415901591359165918D
S1131600959105907FE27395E118F10A430B560B0F
S1131610C90BD009C0F7E10CF11E431F561FC91FA7
S1131620D01D7EF4703311F48A95E6CFE89401500E
S113163030F0080F0AF40027021708F4202F23952E
S1131640022F7A3328F079E37D932A95E9F710C0C5
S11316507D932A9589F606949795679537951795FE
S11316601794E118F10A430B560BC90BD00998F0F3
S113167023957E9173957A3308F070E37C9320135D
S1131680B8F77E9170617D9330F0839571E37D931B
S113169070E32A95E1F71124EF90FF900F911F91C9
S11316A0CF91DF91992787FD90950895FC010590CE
S11316B0615070400110D8F7809590958E0F9F1F50
S11316C00895FC016150704001900110D8F7809595
S11316D090958E0F9F1F08950F931F93CF93DF93C1
S11316E0FB01238121FD03C08FEF9FEF2CC022FF5C
S11316F016C046815781248135814217530744F42B
S1131700A081B1819D012F5F3F4F318320838C9352
S1131710268137812F5F3F4F3783268314C08B0187
S1131720EC01FB010084F185E02D1995892BE1F68C
S1131730D80116968D919C911797019617969C93B4
S11317408E931697CE01DF91CF911F910F9108953B
S1131750CF93DF93CDB7DEB7AE014A5F5F4FFA0197
S113176061917191AF018091E8039091E903D0DA1E
S1131770DF91CF9108950F931F93CF93DF93E0915F
S1131780E803F091E903238121FF1BC08C01D0E021
S1131790C0E0F80181918F016091E8037091E90341
S11317A0DB011896ED91FC911997882331F0199576
S11317B0892B79F3DFEFCFEFECCF8AE01995892BF2
S11317C019F08FEF9FEF02C08D2F9C2FDF91CF91E7
S11317D01F910F910895FA01AA27283051F1203161
S11317E081F1E8946F936E7F6E5F7F4F8F4F9F4FB1
S11317F0AF4FB1E03ED0B4E03CD0670F781F891FF3
S11318009A1FA11D680F791F8A1F911DA11D6A0FC0
S1131810711D811D911DA11D20D009F468943F9173
S11318202AE0269F11243019305D3193DEF6CF0172
S11318300895462F4770405D4193B3E00FD0C9F738
S1131840F6CF462F4F70405D4A3318F0495D31FDA5
S11318504052419302D0A9F7EACFB4E0A6959795F8
S1131860879577956795BA95C9F7009761057105CE
S113187008959B01AC010A2E069457954795379518
S11318802795BA95C9F7620F731F841F951FA01D72
S10918900895F894FFCF57
S11318960000000300000000FD04000000005B32AD
S11318A64A005B303B33323B34306D002D2D2D2DF9
S11318B62D2D2D2D2D2D2D2D2D2D2D2D2D2D2D2D4E
S11318C62D2D2D2D2D2D2D2D2D2D2D2D2D2D2D2D3E
S11318D62D0A0D004D454E553A200A0D0030202D97
S11318E6204B6F6E65630A0D0031202D20526F7AEE
S11318F673766974204C454431200A0D0032202D3C
S1131906205A6861736E69204C454431200A0D00E3
S113191633202D204A6173204C454430200A0D00A3
S113192634202D2053746172742F73746F702042A7
S11319366C696B616E69204C454432200A0D003592
S1131946202D205465706C6F74612070726F63650E
S1131956736F7275200A0D0036202D204175746F41
S11319666D617469636B79206A6173200A0D005B8B
S1131976303B33373B34306D004F766C6164616EB7
S113198669206A6173753A200A0D002B202D205AAE
S11319967679736974206A6173204C4544300A0D64
S11319A6002D202D20536E697A6974206A61732094
S11319B64C454430200A0D0071202D205A70657460
S11319C6200A0D000D0A456E642E2E2E200D000DE4
S11319D60A4B6F6E656320626C696B616E69200DDC
S11319E6000D0A537461727420626C696B616E69CE
S11319F6200D000A0D5465706C6F7461206A653A97
S1131A06202566200A0D000A0D4175746F6D6174F8
S1131A1669636B79206A61733A2000207A61706E7B
S1131A2675746F0D00207679706E75746F0D000DE8
S1131A360A556E6B6E6F776E20636F6D6D616E64A3
S1131A462E2E200D000D0A4272696768746E657346
S1131A56732075702E2E200D000D0A427269676878
S1131A66746E65737320646F776E2E2E200D0000DE
S9030000FC
