:10000000C0C00000DDC00000DBC00000D9C000009F
:10001000D7C00000CDC20000D3C00000D1C0000096
:10002000CFC00000CDC00000CBC00000C9C00000A0
:10003000C7C00000C5C00000C3C00000C1C00000B0
:10004000BFC000000FC30000BBC00000B9C000006B
:10005000B7C00000B5C00000B3C00000B1C00000D0
:10006000AFC00000ADC00000ABC00000A9C00000E0
:10007000A7C00000A5C00000A3C00000A1C00000F0
:100080009FC000009DC000009BC0000099C0000000
:10009000BAC2000095C0000093C0000091C00000EB
:1000A0008FC000008DC000008BC0000089C0000020
:1000B00087C0000085C0000083C0000081C0000030
:1000C0007FC000007DC000007BC0000079C0000040
:1000D00077C0000075C0000073C0000071C0000050
:1000E0006FC000006DC000006BC0000069C0000060
:1000F00067C0000065C0000063C0000061C0000070
:100100005FC000005DC000005BC0000059C000007F
:1001100057C0000055C0000053C0000051C000008F
:100120004FC000004DC000004BC0000049C000009F
:1001300047C000007602C9029102C902C9026102E9
:1001400066026D027402AE02C202C902C902C9028D
:10015000C902C902C902C902C902C902C902C90247
:10016000C902C902C902C902C902C902C902C90237
:10017000C902C902C902C902C902C902C902C90227
:10018000AC0211241FBECFEFD1E8DEBFCDBF00E02F
:100190000CBF13E0A0E0B2E0E6E8FDE000E00BBF3A
:1001A00002C007900D92AE39B107D9F723E0AEE94E
:1001B000B3E001C01D92A83AB207E1F759D1E1C5F9
:1001C0001FCFF89480E096E95FD2E9ECF0E08081FF
:1001D0008068808380E092E09093A5038093A403DD
:1001E00084B1806184B985B1806185B984B1806250
:1001F00084B985B1806285B98DB18F7E8DB98EB19C
:1002000080618EB98DB380618DBBEAE6F0E08081BC
:100210008260808380818160808378940895CF9309
:10022000DF938BE146D28EE092E051D28BE141D256
:1002300082E192E04CD2CCE1D2E0DF93CF93B1D215
:1002400084E492E09F938F93ACD28DE492E09F93ED
:100250008F93A7D289E592E09F938F93A2D28DE6E8
:1002600092E09F938F939DD280E892E09F938F932B
:1002700098D283E992E09F938F9393D288EA92E099
:100280009F938F938ED2DF93CF938BD28BE111D23A
:1002900080ED92E01CD28DB79EB742960FB6F894CF
:1002A0009EBF0FBE8DBFDF91CF910895CF93DF9397
:1002B0008BE1FFD18EE092E00AD28BE1FAD182E1AC
:1002C00092E005D2CCE1D2E0DF93CF936AD284E40E
:1002D00092E09F938F9365D28AED92E09F938F93E4
:1002E00060D28DEE92E09F938F935BD281E093E09A
:1002F0009F938F9356D2DF93CF9353D28BE1D9D173
:1003000080ED92E0E4D18DB79EB70C960FB6F894CD
:100310009EBF0FBE8DBFDF91CF91089580E784B956
:1003200085B92FEF34E39CE0215030409040E1F755
:1003300000C0000015B82FEF34E39CE0215030409E
:100340009040E1F700C0000085B92FEF34E39CE056
:10035000215030409040E1F700C0000015B82FEF69
:1003600034E39CE0215030409040E1F700C00000B1
:1003700085B92FEF34E39CE0215030409040E1F705
:1003800000C0000015B82FEF34E39CE0215030404E
:100390009040E1F700C0000085B92FEF34E38CE016
:1003A000215030408040E1F700C0000015B89FEFB9
:1003B00024E33CE0915020403040E1F700C00000D1
:1003C00014B815B80895CF93DF93F894A0E8B0E07F
:1003D0001C92E1E8F0E01082CFE6D0E01882909322
:1003E000890080938800808188608083808181601B
:1003F00080838081846080838881826088838C91FF
:1004000080648C937894DF91CF910895CF93DF939C
:10041000F894E0EBF0E0108241EB50E0DA011C923E
:10042000C0E7D0E018826FEF689F9001699F300DA0
:1004300011243695279536952795ABE7B4E180D101
:10044000969587958093B3008081826080838081B8
:1004500081608083DA018C9185608C9388818160D2
:1004600088838081806880837894DF91CF9108951C
:1004700055DFA7DE2FEF80E792E0215080409040CB
:10048000E1F700C00000CBDE2FEF80E792E02150C3
:1004900080409040E1F700C0000080919F038130D0
:1004A00009F07CC0E091A1038E2F90E0FC01BB9786
:1004B000E732F10508F06DC08827E656FF4F8F4FF1
:1004C00037C186E193E080D1AADE66C085B18F7D19
:1004D00085B98EE792E078D15FC08EE792E074D163
:1004E00085B1806285B958C0E1DE56C080919E0317
:1004F0008F3F29F080919E03865F80939E038091B9
:100500009E031F928F938CE293E09F938F9349D128
:1005100080919E0390E07ADF0F900F900F900F90E4
:100520003BC080919E03882329F080919E038A50CE
:1005300080939E0380919E031F928F9381E493E0AA
:100540009F938F932ED180919E0390E05FDF0F9059
:100550000F900F900F9020C062DE1EC08EE792E0D9
:1005600033D1C1E4D0E003C08C2FA3D02196CA358B
:10057000D105D4F38DE792E09F938F9312D10F9022
:100580000F900AC086E593E01FD184E89EE11BDF4F
:1005900003C089E893E018D110929F032FEF80E702
:1005A00092E0215080409040E1F700C0000075CFFC
:1005B0001F920F920FB60F9211242F938F939F9338
:1005C0008DB38F7E8DBB2FEF81EE94E02150804064
:1005D0009040E1F700C000008091A0038F5F8093FE
:1005E000A00395B180E1892785B98CB380618CBB6C
:1005F0008DB380618DBB9F918F912F910F900FBE16
:100600000F901F9018951F920F920FB60F92112402
:100610000BB60F922F933F934F935F936F937F93FC
:100620008F939F93AF93BF93EF93FF9349D08093A2
:10063000A1038091A1033DD081E080939F03FF91AE
:10064000EF91BF91AF919F918F917F916F915F914A
:100650004F913F912F910F900BBE0F900FBE0F90B7
:100660001F9018951F920F920FB60F9211248F931F
:100670009F939EB188E089278EB99F918F910F90AB
:100680000FBE0F901F9018959C0140E050E060E273
:1006900071EA87E090E030D02150310986E0809304
:1006A000CA003093CD002093CC0088E18093C9002C
:1006B00008959091C80095FFFCCF8093CE000895D7
:1006C0008091C8008823E4F78091CE000895CF93ED
:1006D000DF93EC0102C0EDDF219688818111FBCF11
:1006E000DF91CF9108959091C80095FFFCCF809342
:1006F000CE0080E090E00895052E97FB16F400945C
:100700000FD057FD05D02BD007FC02D046F408C00F
:1007100050954095309521953F4F4F4F5F4F08952D
:1007200090958095709561957F4F8F4F9F4F08955D
:10073000EE0FFF1F881F8BBF0790F691E02D1994D5
:10074000A29FB001B39FC001A39F700D811D112412
:10075000911DB29F700D811D1124911D0895A1E27C
:100760001A2EAA1BBB1BFD010DC0AA1FBB1FEE1F2B
:10077000FF1FA217B307E407F50720F0A21BB30B76
:10078000E40BF50B661F771F881F991F1A9469F7F2
:1007900060957095809590959B01AC01BD01CF014E
:1007A0000895CF93DF93CDB7DEB7AE014A5F5F4FB9
:1007B000FA0161917191AF018091A4039091A50319
:1007C00033D0DF91CF9108950F931F93CF93DF9391
:1007D000E091A403F091A503238121FF1BC08C01AC
:1007E000D0E0C0E0F80181918F016091A403709185
:1007F000A503DB011896ED91FC911997882331F040
:100800001995892B79F3DFEFCFEFECCF8AE01995BB
:10081000892B19F08FEF9FEF02C08D2F9C2FDF9156
:10082000CF911F910F9108952F923F924F925F9217
:100830006F927F928F929F92AF92BF92CF92DF92F0
:10084000EF92FF920F931F93CF93DF93CDB7DEB755
:100850002B970FB6F894DEBF0FBECDBF6C017B01A6
:100860008A01FC0117821682838181FFBFC1CE01FC
:1008700001963C01F6019381F70193FD859193FF69
:1008800081917F01882309F4ADC1853239F493FD4C
:10089000859193FF81917F01853221F4B60190E02B
:1008A000D6D1E8CF912C212C312CFFE1F315D8F0D3
:1008B0008B3279F038F4803279F08332A1F4232D31
:1008C00020611DC08D3261F0803369F4232D2160D9
:1008D00016C0832D8260382EE32DE4603E2E2AC0A0
:1008E000F32DF8601DC037FC2DC020ED280F2A30F5
:1008F00040F08E32B9F436FC75C1232D2064322EBF
:1009000019C036FE06C08AE0989E200D1124922E52
:1009100011C0EAE02E9E200D1124222EF32DF0624C
:100920003F2E08C08C3621F4832D8068382E02C0FB
:10093000883641F4F70193FD859193FF81917F0102
:100940008111B3CF982F9F7D9554933028F40C5F7D
:100950001F4F9FE399830DC0833631F0833771F0C9
:10096000833509F055C020C0F801808189830E5F6E
:100970001F4F88248394912C530112C02801F2E068
:100980004F0E511CF801A080B18036FE03C0692DC6
:1009900070E002C06FEF7FEFC5014ED14C018201C4
:1009A000F32DFF773F2E15C0280122E0420E511C87
:1009B000F801A080B18036FE03C0692D70E002C04E
:1009C0006FEF7FEFC5012DD14C01F32DF0683F2E65
:1009D000820133FC19C0822D90E088169906A0F49C
:1009E000B60180E290E033D12A94F5CFF50137FCCF
:1009F000859137FE81915F01B60190E028D12110E9
:100A00002A9421E0821A91088114910479F7E1C0B7
:100A1000843611F0893639F5F80137FE07C0608158
:100A20007181828193810C5F1F4F08C06081718149
:100A3000072E000C880B990B0E5F1F4FF32DFF76CE
:100A40003F2E97FF09C090958095709561957F4FD7
:100A50008F4F9F4FF0683F2E2AE030E0A30133D143
:100A6000882E861844C0853731F4232D2F7EB22E70
:100A70002AE030E025C0932D997FB92E8F36C1F042
:100A800018F4883579F0AEC0803719F0883721F036
:100A9000A9C0E92FE061BE2EB4FE0DC0FB2DF460AD
:100AA000BF2E09C034FE0AC0292F2660B22E06C010
:100AB00028E030E005C020E130E002C020E132E073
:100AC000F801B7FE07C060817181828193810C5F5C
:100AD0001F4F06C06081718180E090E00E5F1F4F64
:100AE000A301F1D0882E8618FB2DFF773F2E36FE0E
:100AF0000DC0232D2E7FA22E891458F434FE0BC076
:100B000032FC09C0832D8E7EA82E05C0B82CA32CE4
:100B100003C0B82C01C0B92CA4FE0FC0FE01E80D23
:100B2000F11D8081803321F49A2D997EA92E09C070
:100B3000A2FE06C0B394B39404C08A2D867809F04F
:100B4000B394A3FC10C0A0FE06C0B21480F4280C1D
:100B5000922C9B180DC0B21458F4B60180E290E0BC
:100B600076D0B394F8CFB21418F42B1802C0982C96
:100B7000212CA4FE0FC0B60180E390E068D0A2FE55
:100B800016C0A1FC03C088E790E002C088E590E0B1
:100B9000B6010CC08A2D867851F0A1FE02C08BE20E
:100BA00001C080E2A7FC8DE2B60190E050D089142C
:100BB00030F4B60180E390E04AD09A94F8CF8A945A
:100BC000F301E80DF11D8081B60190E040D0811065
:100BD000F6CF222009F44ECEB60180E290E037D065
:100BE0002A94F7CFF6018681978102C08FEF9FEF9D
:100BF0002B960FB6F894DEBF0FBECDBFDF91CF911D
:100C00001F910F91FF90EF90DF90CF90BF90AF902A
:100C10009F908F907F906F905F904F903F902F901C
:100C20000895FC010590615070400110D8F780953F
:100C300090958E0F9F1F0895FC01615070400190A8
:100C40000110D8F7809590958E0F9F1F08950F93F0
:100C50001F93CF93DF93FB01238121FD03C08FEF0F
:100C60009FEF2CC022FF16C0468157812481358119
:100C70004217530744F4A081B1819D012F5F3F4F7C
:100C8000318320838C93268137812F5F3F4F3783B9
:100C9000268314C08B01EC01FB010084F185E02D5B
:100CA0001995892BE1F6D80116968D919C9117978D
:100CB000019617969C938E931697CE01DF91CF9154
:100CC0001F910F910895FA01AA27283051F1203180
:100CD00081F1E8946F936E7F6E5F7F4F8F4F9F4FD0
:100CE000AF4FB1E03ED0B4E03CD0670F781F891F12
:100CF0009A1FA11D680F791F8A1F911DA11D6A0FE0
:100D0000711D811D911DA11D20D009F468943F9192
:100D10002AE0269F11243019305D3193DEF6CF0191
:100D20000895462F4770405D4193B3E00FD0C9F757
:100D3000F6CF462F4F70405D4A3318F0495D31FDC4
:100D40004052419302D0A9F7EACFB4E0A695979517
:100D5000879577956795BA95C9F7009761057105ED
:100D600008959B01AC010A2E069457954795379537
:100D70002795BA95C9F7620F731F841F951FA01D91
:060D80000895F894FFCF76
:100D860000000003000000007303000000005B3257
:100D96004A005B303B33323B34306D002D2D2D2D18
:100DA6002D2D2D2D2D2D2D2D2D2D2D2D2D2D2D2D6D
:100DB6002D2D2D2D2D2D2D2D2D2D2D2D2D2D2D2D5D
:100DC6002D0A0D004D454E553A200A0D0030202DB6
:100DD600204B6F6E65630A0D0031202D20526F7A0D
:100DE60073766974204C454431200A0D0032202D5B
:100DF600205A6861736E69204C454431200A0D0003
:100E060033202D20557072617661206A61737520DA
:100E16000A0D0034202D20567970697320616265B1
:100E260063656475200A0D0035202D205370757397
:100E36007469742067656E65726F76616E69206687
:100E460072656B76656E6365203220487A0A0D00FE
:100E56005B303B33373B34306D002B202D205A76E8
:100E66007973656E69206A6173750A0D002D202DF0
:100E760020536E697A656E69206A617375200A0D62
:100E86000051202D205A70657420646F206D656EA8
:100E96007531200A0D000D0A4B6F6E63696D207067
:100EA600726F6772616D2E2E2E200D000D0A5A7616
:100EB600FD9A656EED206A6173753A2025640A0D08
:100EC600000D0A536EED9E656EED206A6173753AEC
:100ED6002025640A0D000D0A53706F757374696DD1
:100EE6002067656E65726F76616E69203220487A7A
:100EF600206672656B76656E6365206E6120504F65
:100F0600525442352E2E2E0D000D0A4E657A6E6114
:0E0F16006D79207072696B617A2E2E0D0000CD
:00000001FF
